{"abi":[{"type":"function","name":"verify","inputs":[{"name":"px","type":"uint256","internalType":"uint256"},{"name":"rx","type":"uint256","internalType":"uint256"},{"name":"s","type":"uint256","internalType":"uint256"},{"name":"m","type":"bytes32","internalType":"bytes32"}],"outputs":[{"name":"","type":"bool","internalType":"bool"}],"stateMutability":"pure"}],"bytecode":{"object":"0x6080806040523461001657610379908161001b8239f35b5f80fdfe60806040526004361015610011575f80fd5b5f3560e01c630fde6e5514610024575f80fd5b3461005557608036600319011261005557602061004b606435604435602435600435610059565b6040519015158152f35b5f80fd5b92916401000003d01980851080159190610203575b5080156101e7575b6101df576100838261020e565b949094156101d6576040938451907f7bb52d7a9fef58323eb1bf7a407db382d2f3f2d81bb1224f49fe518f6d48d37c94602095808785015287840152606083015282608083015260a082015260a0815260c09060c081019181831067ffffffffffffffff8411176101c25791859181885280515f945b8186106101ab57505f93945081018360c0820152039060025afa156101a15770014551231950b75fc4402da1732fc9bebe19918282815f5106920983039083821161018d5782849109830392831161018d575f926080928651928352601b8684015286830152606082015282805260015afa1561018457505f516001600160a01b0390811691161490565b513d5f823e3d90fd5b634e487b7160e01b5f52601160045260245ffd5b83513d5f823e3d90fd5b8286018581015190820152939094019387936100f9565b634e487b7160e01b5f52604160045260245ffd5b50505050505f90565b505050505f90565b5070014551231950b75fc4402da1732fc9bebe19811015610076565b90508210155f61006e565b61021781610268565b919091156102605760405191602083019182526040830152604082526060820182811067ffffffffffffffff8211176101c257604052905190206001600160a01b031690600190565b50505f905f90565b6401000003d019908181101561026057818181806007815f61029397090891818180099009086102c3565b90600182166102a457505b90600190565b9081039081111561029e57634e487b7160e01b5f52601160045260245ffd5b801561033e57600190600160ff1b908290825b6102e05750505090565b9091926401000003d019908180808063400000f4600160fe1b0394818a87161515890a918009098189891c86161515880a91800909818860021c85161515870a91800909918660031c161515840a918009099260041c9190826102d6565b505f9056fea26469706673582212204110e96cd3776c7e7afa04e7a0d2fb902634b5cfb287f9019725acdc2c8c39a964736f6c63430008180033","linkReferences":{}},"methodIdentifiers":{"verify(uint256,uint256,uint256,bytes32)":"0fde6e55"},"id":1}