{"abi":[{"type":"constructor","inputs":[{"name":"admin","type":"address","internalType":"address"}],"stateMutability":"nonpayable"},{"type":"function","name":"DEFAULT_ADMIN_ROLE","inputs":[],"outputs":[{"name":"","type":"bytes32","internalType":"bytes32"}],"stateMutability":"view"},{"type":"function","name":"MINTER_ROLE","inputs":[],"outputs":[{"name":"","type":"bytes32","internalType":"bytes32"}],"stateMutability":"view"},{"type":"function","name":"allowance","inputs":[{"name":"owner","type":"address","internalType":"address"},{"name":"spender","type":"address","internalType":"address"}],"outputs":[{"name":"","type":"uint256","internalType":"uint256"}],"stateMutability":"view"},{"type":"function","name":"approve","inputs":[{"name":"spender","type":"address","internalType":"address"},{"name":"value","type":"uint256","internalType":"uint256"}],"outputs":[{"name":"","type":"bool","internalType":"bool"}],"stateMutability":"nonpayable"},{"type":"function","name":"balanceOf","inputs":[{"name":"account","type":"address","internalType":"address"}],"outputs":[{"name":"","type":"uint256","internalType":"uint256"}],"stateMutability":"view"},{"type":"function","name":"burn","inputs":[{"name":"from","type":"address","internalType":"address"},{"name":"amount","type":"uint256","internalType":"uint256"}],"outputs":[],"stateMutability":"nonpayable"},{"type":"function","name":"decimals","inputs":[],"outputs":[{"name":"","type":"uint8","internalType":"uint8"}],"stateMutability":"pure"},{"type":"function","name":"getRoleAdmin","inputs":[{"name":"role","type":"bytes32","internalType":"bytes32"}],"outputs":[{"name":"","type":"bytes32","internalType":"bytes32"}],"stateMutability":"view"},{"type":"function","name":"grantRole","inputs":[{"name":"role","type":"bytes32","internalType":"bytes32"},{"name":"account","type":"address","internalType":"address"}],"outputs":[],"stateMutability":"nonpayable"},{"type":"function","name":"hasRole","inputs":[{"name":"role","type":"bytes32","internalType":"bytes32"},{"name":"account","type":"address","internalType":"address"}],"outputs":[{"name":"","type":"bool","internalType":"bool"}],"stateMutability":"view"},{"type":"function","name":"mint","inputs":[{"name":"to","type":"address","internalType":"address"},{"name":"amount","type":"uint256","internalType":"uint256"}],"outputs":[],"stateMutability":"nonpayable"},{"type":"function","name":"name","inputs":[],"outputs":[{"name":"","type":"string","internalType":"string"}],"stateMutability":"view"},{"type":"function","name":"renounceRole","inputs":[{"name":"role","type":"bytes32","internalType":"bytes32"},{"name":"callerConfirmation","type":"address","internalType":"address"}],"outputs":[],"stateMutability":"nonpayable"},{"type":"function","name":"revokeRole","inputs":[{"name":"role","type":"bytes32","internalType":"bytes32"},{"name":"account","type":"address","internalType":"address"}],"outputs":[],"stateMutability":"nonpayable"},{"type":"function","name":"supportsInterface","inputs":[{"name":"interfaceId","type":"bytes4","internalType":"bytes4"}],"outputs":[{"name":"","type":"bool","internalType":"bool"}],"stateMutability":"view"},{"type":"function","name":"symbol","inputs":[],"outputs":[{"name":"","type":"string","internalType":"string"}],"stateMutability":"view"},{"type":"function","name":"totalSupply","inputs":[],"outputs":[{"name":"","type":"uint256","internalType":"uint256"}],"stateMutability":"view"},{"type":"function","name":"transfer","inputs":[{"name":"to","type":"address","internalType":"address"},{"name":"value","type":"uint256","internalType":"uint256"}],"outputs":[{"name":"","type":"bool","internalType":"bool"}],"stateMutability":"nonpayable"},{"type":"function","name":"transferFrom","inputs":[{"name":"from","type":"address","internalType":"address"},{"name":"to","type":"address","internalType":"address"},{"name":"value","type":"uint256","internalType":"uint256"}],"outputs":[{"name":"","type":"bool","internalType":"bool"}],"stateMutability":"nonpayable"},{"type":"event","name":"Approval","inputs":[{"name":"owner","type":"address","indexed":true,"internalType":"address"},{"name":"spender","type":"address","indexed":true,"internalType":"address"},{"name":"value","type":"uint256","indexed":false,"internalType":"uint256"}],"anonymous":false},{"type":"event","name":"Burned","inputs":[{"name":"from","type":"address","indexed":true,"internalType":"address"},{"name":"amount","type":"uint256","indexed":false,"internalType":"uint256"},{"name":"burner","type":"address","indexed":true,"internalType":"address"}],"anonymous":false},{"type":"event","name":"Minted","inputs":[{"name":"to","type":"address","indexed":true,"internalType":"address"},{"name":"amount","type":"uint256","indexed":false,"internalType":"uint256"},{"name":"minter","type":"address","indexed":true,"internalType":"address"}],"anonymous":false},{"type":"event","name":"RoleAdminChanged","inputs":[{"name":"role","type":"bytes32","indexed":true,"internalType":"bytes32"},{"name":"previousAdminRole","type":"bytes32","indexed":true,"internalType":"bytes32"},{"name":"newAdminRole","type":"bytes32","indexed":true,"internalType":"bytes32"}],"anonymous":false},{"type":"event","name":"RoleGranted","inputs":[{"name":"role","type":"bytes32","indexed":true,"internalType":"bytes32"},{"name":"account","type":"address","indexed":true,"internalType":"address"},{"name":"sender","type":"address","indexed":true,"internalType":"address"}],"anonymous":false},{"type":"event","name":"RoleRevoked","inputs":[{"name":"role","type":"bytes32","indexed":true,"internalType":"bytes32"},{"name":"account","type":"address","indexed":true,"internalType":"address"},{"name":"sender","type":"address","indexed":true,"internalType":"address"}],"anonymous":false},{"type":"event","name":"Transfer","inputs":[{"name":"from","type":"address","indexed":true,"internalType":"address"},{"name":"to","type":"address","indexed":true,"internalType":"address"},{"name":"value","type":"uint256","indexed":false,"internalType":"uint256"}],"anonymous":false},{"type":"error","name":"AccessControlBadConfirmation","inputs":[]},{"type":"error","name":"AccessControlUnauthorizedAccount","inputs":[{"name":"account","type":"address","internalType":"address"},{"name":"neededRole","type":"bytes32","internalType":"bytes32"}]},{"type":"error","name":"BurnFromZeroAddress","inputs":[]},{"type":"error","name":"ERC20InsufficientAllowance","inputs":[{"name":"spender","type":"address","internalType":"address"},{"name":"allowance","type":"uint256","internalType":"uint256"},{"name":"needed","type":"uint256","internalType":"uint256"}]},{"type":"error","name":"ERC20InsufficientBalance","inputs":[{"name":"sender","type":"address","internalType":"address"},{"name":"balance","type":"uint256","internalType":"uint256"},{"name":"needed","type":"uint256","internalType":"uint256"}]},{"type":"error","name":"ERC20InvalidApprover","inputs":[{"name":"approver","type":"address","internalType":"address"}]},{"type":"error","name":"ERC20InvalidReceiver","inputs":[{"name":"receiver","type":"address","internalType":"address"}]},{"type":"error","name":"ERC20InvalidSender","inputs":[{"name":"sender","type":"address","internalType":"address"}]},{"type":"error","name":"ERC20InvalidSpender","inputs":[{"name":"spender","type":"address","internalType":"address"}]},{"type":"error","name":"InsufficientBalance","inputs":[]},{"type":"error","name":"MintToZeroAddress","inputs":[]}],"bytecode":{"object":"0x60806040523462000345576200105a80380390816200001e8162000369565b92839283396020928391810103126200034557516001600160a01b03811680820362000345576200004e62000349565b6009815268119c9bdcdd081554d160ba1b848201526200006d62000349565b6005815264199c9554d160da1b8582015281516001600160401b0391908281116200024e576003918254916001958684811c941680156200033a575b8a85101462000326578190601f94858111620002d3575b508a908583116001146200026e575f9262000262575b50505f1982861b1c191690861b1783555b80519384116200024e5760049788548681811c9116801562000243575b828210146200023057838111620001e8575b50809285116001146200017e57509383949184925f9562000172575b50501b925f19911b1c19161783555b15620001635762000152906200038f565b50604051610c289081620004128239f35b50604051622e076360e81b8152fd5b015193505f8062000132565b92919084601f1981168a5f52855f20955f905b89838310620001cd5750505010620001b3575b50505050811b01835562000141565b01519060f8845f19921b161c191690555f808080620001a4565b85870151895590970196948501948893509081019062000191565b895f52815f208480880160051c82019284891062000226575b0160051c019087905b8281106200021a57505062000116565b5f81550187906200020a565b9250819262000201565b60228a634e487b7160e01b5f525260245ffd5b90607f169062000104565b634e487b7160e01b5f52604160045260245ffd5b015190505f80620000d6565b5f8781528c81208a9550929190601f198516908e5b828210620002bb5750508411620002a3575b505050811b018355620000e7565b01515f1983881b60f8161c191690555f808062000295565b8385015186558c979095019493840193018e62000283565b909150855f528a5f208580850160051c8201928d86106200031c575b918a91869594930160051c01915b8281106200030d575050620000c0565b5f81558594508a9101620002fd565b92508192620002ef565b634e487b7160e01b5f52602260045260245ffd5b93607f1693620000a9565b5f80fd5b60408051919082016001600160401b038111838210176200024e57604052565b6040519190601f01601f191682016001600160401b038111838210176200024e57604052565b6001600160a01b03165f8181525f805160206200103a833981519152602052604090205460ff166200040c575f8181525f805160206200103a83398151915260205260408120805460ff191660011790553391907f2f8788117e7eff1d82e926ec794901d17c78024a50270940304540a733656f0d8180a4600190565b505f9056fe6080604090808252600480361015610015575f80fd5b5f3560e01c91826301ffc9a7146108c65750816306fdde03146107eb578163095ea7b31461074357816318160ddd1461072557816323b872dd14610633578163248a9ca3146106095781632f2ff15d146105e1578163313ce567146105c657816336568abe1461058257816340c10f19146104b257816370a082311461047c57816391d148541461043857816395d89b41146103195781639dc29fac146101fd578163a217fddf146101e3578163a9059cbb146101b3578163d539139314610179578163d547741f1461013d575063dd62ed3e146100f1575f80fd5b3461013957806003193601126101395760209061010c61095f565b610114610975565b9060018060a01b038091165f5260018452825f2091165f528252805f20549051908152f35b5f80fd5b823461013957806003193601126101395761017791356101726001610160610975565b93835f5260056020525f200154610ade565b610b7e565b005b8234610139575f36600319011261013957602090517f9f2df0fed2c77648de5860a4cc508cd0818c85b8b8a1ab4ceeef8d981c8956a68152f35b82346101395780600319360112610139576020906101dc6101d261095f565b602435903361098b565b5160018152f35b8234610139575f36600319011261013957602090515f8152f35b823461013957806003193601126101395761021661095f565b9060243592610223610a65565b6001600160a01b03831692831561030a57835f525f60205284835f2054106102fb57835f525f602052825f2054918583106102c75750508390835f525f60205203815f205582600254036002555f827fddf252ad1be2c89b69c2b068fc378daa952ba7f163c4a11628f55a4df523b3ef60208451878152a3519182527f4bec313b95a1f7373890b5d9dce4c4737945f27093ca8f3e357bec1219299eaf60203393a3005b835163391434e360e21b81526001600160a01b03909216908201908152602081018390526040810186905281906060010390fd5b509051631e9acf1760e31b8152fd5b50905163b817eee760e01b8152fd5b8234610139575f366003190112610139578051905f835460018160011c906001831692831561042e575b602093848410811461041b578388529081156103ff57506001146103ab575b505050829003601f01601f191682019267ffffffffffffffff8411838510176103985750829182610394925282610918565b0390f35b604190634e487b7160e01b5f525260245ffd5b5f878152929350837f8a35acfbc15ff81a39ae7d344fd709f28e8600b4aa8c65c6b64bfe7fe36bd19b5b8385106103eb5750505050830101848080610362565b8054888601830152930192849082016103d5565b60ff1916878501525050151560051b8401019050848080610362565b602289634e487b7160e01b5f525260245ffd5b91607f1691610343565b8234610139578060031936011261013957602091610454610975565b90355f5260058352815f209060018060a01b03165f52825260ff815f20541690519015158152f35b8234610139576020366003190112610139576020906001600160a01b036104a161095f565b165f525f8252805f20549051908152f35b9050346101395781600319360112610139576104cc61095f565b91602435926104d9610a65565b6001600160a01b031691821561057557600254908482018092116105625750600255815f525f602052805f20838154019055815f7fddf252ad1be2c89b69c2b068fc378daa952ba7f163c4a11628f55a4df523b3ef60208451878152a3519182527ffd1ba5519feb014ad2f631cbd516bd3cec96be935749391554d122972593e7bf60203393a3005b601190634e487b7160e01b5f525260245ffd5b9051622e076360e81b8152fd5b823461013957806003193601126101395761059b610975565b90336001600160a01b038316036105b757506101779135610b7e565b5163334bd91960e11b81529050fd5b8234610139575f366003190112610139576020905160128152f35b823461013957806003193601126101395761017791356106046001610160610975565b610b00565b823461013957602036600319011261013957602091355f52600582526001815f2001549051908152f35b9050346101395760603660031901126101395761064e61095f565b610656610975565b906044359260018060a01b038216805f526001602052855f20335f52602052855f2054915f198310610691575b6020876101dc88888861098b565b8583106106f95781156106e35733156106cd57505f908152600160209081528682203383528152908690209185900390915582906101dc610683565b6024905f885191634a1406b160e11b8352820152fd5b6024905f88519163e602df0560e01b8352820152fd5b8651637dc7a0d960e11b8152339181019182526020820193909352604081018690528291506060010390fd5b8234610139575f366003190112610139576020906002549051908152f35b823461013957806003193601126101395761075c61095f565b6024359033156107d5576001600160a01b03169081156107bf5760209350335f5260018452825f20825f52845280835f205582519081527f8c5be1e5ebec7d5bd14f71427d1e84f3dd0314c0f7b2291e5b200ac8c7c3b925843392a35160018152f35b8251634a1406b160e11b81525f81860152602490fd5b825163e602df0560e01b81525f81860152602490fd5b8234610139575f366003190112610139578051905f60035460018160011c90600183169283156108bc575b602093848410811461041b578388529081156103ff575060011461086657505050829003601f01601f191682019267ffffffffffffffff8411838510176103985750829182610394925282610918565b60035f908152929350837fc2575a0e9e593c00f959f8c92f12db2869c3395a3b0502d05e2516446f71f85b5b8385106108a85750505050830101848080610362565b805488860183015293019284908201610892565b91607f1691610816565b903461013957602036600319011261013957359063ffffffff60e01b821680920361013957602091637965db0b60e01b8114908115610907575b5015158152f35b6301ffc9a760e01b14905083610900565b602080825282518183018190529093925f5b82811061094b57505060409293505f838284010152601f8019910116010190565b81810186015184820160400152850161092a565b600435906001600160a01b038216820361013957565b602435906001600160a01b038216820361013957565b916001600160a01b03808416928315610a4d5716928315610a3557825f525f60205260405f205490828210610a035750817fddf252ad1be2c89b69c2b068fc378daa952ba7f163c4a11628f55a4df523b3ef92602092855f525f84520360405f2055845f5260405f20818154019055604051908152a3565b60405163391434e360e21b81526001600160a01b03919091166004820152602481019190915260448101829052606490fd5b60405163ec442f0560e01b81525f6004820152602490fd5b604051634b637e8f60e11b81525f6004820152602490fd5b335f9081527f15a28d26fa1bf736cf7edc9922607171ccb09c3c73b808e7772a3013e068a52260205260409020547f9f2df0fed2c77648de5860a4cc508cd0818c85b8b8a1ab4ceeef8d981c8956a69060ff1615610ac05750565b6044906040519063e2517d3f60e01b82523360048301526024820152fd5b805f52600560205260405f20335f5260205260ff60405f20541615610ac05750565b90815f52600560205260405f209060018060a01b031690815f5260205260ff60405f205416155f14610b7857815f52600560205260405f20815f5260205260405f20600160ff1982541617905533917f2f8788117e7eff1d82e926ec794901d17c78024a50270940304540a733656f0d5f80a4600190565b50505f90565b90815f52600560205260405f209060018060a01b031690815f5260205260ff60405f2054165f14610b7857815f52600560205260405f20815f5260205260405f2060ff19815416905533917ff6391f5c32d9c69d2a47ea670b442974b53935d1edc7fd64eb21e047a839171b5f80a460019056fea26469706673582212203939c165169eeb3de5e76c843d5ae13302e1dece9b08bd56f699c2d57f99968d64736f6c6343000818003305b8ccbb9d4d8fb16ea74ce3c29a41f1b461fbdaff4714a0d9a8eb05499746bc","linkReferences":{}},"methodIdentifiers":{"DEFAULT_ADMIN_ROLE()":"a217fddf","MINTER_ROLE()":"d5391393","allowance(address,address)":"dd62ed3e","approve(address,uint256)":"095ea7b3","balanceOf(address)":"70a08231","burn(address,uint256)":"9dc29fac","decimals()":"313ce567","getRoleAdmin(bytes32)":"248a9ca3","grantRole(bytes32,address)":"2f2ff15d","hasRole(bytes32,address)":"91d14854","mint(address,uint256)":"40c10f19","name()":"06fdde03","renounceRole(bytes32,address)":"36568abe","revokeRole(bytes32,address)":"d547741f","supportsInterface(bytes4)":"01ffc9a7","symbol()":"95d89b41","totalSupply()":"18160ddd","transfer(address,uint256)":"a9059cbb","transferFrom(address,address,uint256)":"23b872dd"},"id":61}