{"abi":[{"type":"function","name":"UPGRADE_INTERFACE_VERSION","inputs":[],"outputs":[{"name":"","type":"string","internalType":"string"}],"stateMutability":"view"},{"type":"function","name":"VAULT_NAME","inputs":[],"outputs":[{"name":"","type":"string","internalType":"string"}],"stateMutability":"view"},{"type":"function","name":"asset","inputs":[],"outputs":[{"name":"","type":"address","internalType":"contract IERC20"}],"stateMutability":"view"},{"type":"function","name":"assetsInStrategy","inputs":[],"outputs":[{"name":"","type":"uint256","internalType":"uint256"}],"stateMutability":"view"},{"type":"function","name":"authNonce","inputs":[],"outputs":[{"name":"","type":"uint256","internalType":"uint256"}],"stateMutability":"view"},{"type":"function","name":"authenticatedCall","inputs":[{"name":"data","type":"bytes","internalType":"bytes"},{"name":"nonce","type":"uint256","internalType":"uint256"},{"name":"signature","type":"bytes","internalType":"bytes"}],"outputs":[{"name":"result","type":"bytes","internalType":"bytes"}],"stateMutability":"nonpayable"},{"type":"function","name":"bip340Verifier","inputs":[],"outputs":[{"name":"","type":"address","internalType":"contract Bip340Ecrec"}],"stateMutability":"view"},{"type":"function","name":"burnFrUSD","inputs":[{"name":"paymentId","type":"uint256","internalType":"uint256"}],"outputs":[],"stateMutability":"nonpayable"},{"type":"function","name":"convertToAssets","inputs":[{"name":"frUsdAmount","type":"uint256","internalType":"uint256"}],"outputs":[{"name":"","type":"uint256","internalType":"uint256"}],"stateMutability":"view"},{"type":"function","name":"convertToFrUSD","inputs":[{"name":"assets","type":"uint256","internalType":"uint256"}],"outputs":[{"name":"","type":"uint256","internalType":"uint256"}],"stateMutability":"view"},{"type":"function","name":"decimals","inputs":[],"outputs":[{"name":"","type":"uint8","internalType":"uint8"}],"stateMutability":"pure"},{"type":"function","name":"defaultPublicKey","inputs":[],"outputs":[{"name":"","type":"bytes32","internalType":"bytes32"}],"stateMutability":"view"},{"type":"function","name":"deposit","inputs":[{"name":"assets","type":"uint256","internalType":"uint256"},{"name":"receiver","type":"address","internalType":"address"}],"outputs":[{"name":"frUsdAmount","type":"uint256","internalType":"uint256"}],"stateMutability":"nonpayable"},{"type":"function","name":"depositAndBridge","inputs":[{"name":"assets","type":"uint256","internalType":"uint256"},{"name":"protostones","type":"bytes","internalType":"bytes"},{"name":"outputs","type":"tuple[]","internalType":"struct BaseStablecoinVault.TxOut[]","components":[{"name":"value","type":"uint64","internalType":"uint64"},{"name":"scriptPubKey","type":"bytes","internalType":"bytes"}]}],"outputs":[{"name":"frUsdAmount","type":"uint256","internalType":"uint256"}],"stateMutability":"nonpayable"},{"type":"function","name":"depositToStrategy","inputs":[],"outputs":[],"stateMutability":"nonpayable"},{"type":"function","name":"feeRecipient","inputs":[],"outputs":[{"name":"","type":"address","internalType":"address"}],"stateMutability":"view"},{"type":"function","name":"feesCollected","inputs":[],"outputs":[{"name":"","type":"uint256","internalType":"uint256"}],"stateMutability":"view"},{"type":"function","name":"frUSD","inputs":[],"outputs":[{"name":"","type":"address","internalType":"contract IFrUSD"}],"stateMutability":"view"},{"type":"function","name":"getPayment","inputs":[{"name":"index","type":"uint256","internalType":"uint256"}],"outputs":[{"name":"depositor","type":"address","internalType":"address"},{"name":"frUsdAmount","type":"uint256","internalType":"uint256"},{"name":"assetAmount","type":"uint256","internalType":"uint256"},{"name":"protostones","type":"bytes","internalType":"bytes"},{"name":"outputCount","type":"uint256","internalType":"uint256"},{"name":"timestamp","type":"uint256","internalType":"uint256"},{"name":"processed","type":"bool","internalType":"bool"}],"stateMutability":"view"},{"type":"function","name":"getPaymentOutputs","inputs":[{"name":"index","type":"uint256","internalType":"uint256"}],"outputs":[{"name":"","type":"tuple[]","internalType":"struct BaseStablecoinVault.TxOut[]","components":[{"name":"value","type":"uint64","internalType":"uint64"},{"name":"scriptPubKey","type":"bytes","internalType":"bytes"}]}],"stateMutability":"view"},{"type":"function","name":"getPaymentsLength","inputs":[],"outputs":[{"name":"","type":"uint256","internalType":"uint256"}],"stateMutability":"view"},{"type":"function","name":"initialize","inputs":[{"name":"_asset","type":"address","internalType":"contract IERC20"},{"name":"_frUSD","type":"address","internalType":"contract IFrUSD"},{"name":"_bip340Verifier","type":"address","internalType":"address"},{"name":"_defaultPublicKey","type":"bytes32","internalType":"bytes32"}],"outputs":[],"stateMutability":"nonpayable"},{"type":"function","name":"markPaymentProcessed","inputs":[{"name":"paymentId","type":"uint256","internalType":"uint256"}],"outputs":[],"stateMutability":"nonpayable"},{"type":"function","name":"name","inputs":[],"outputs":[{"name":"","type":"string","internalType":"string"}],"stateMutability":"pure"},{"type":"function","name":"payments","inputs":[{"name":"","type":"uint256","internalType":"uint256"}],"outputs":[{"name":"depositor","type":"address","internalType":"address"},{"name":"frUsdAmount","type":"uint256","internalType":"uint256"},{"name":"assetAmount","type":"uint256","internalType":"uint256"},{"name":"protostones","type":"bytes","internalType":"bytes"},{"name":"timestamp","type":"uint256","internalType":"uint256"},{"name":"processed","type":"bool","internalType":"bool"}],"stateMutability":"view"},{"type":"function","name":"pendingFrUSD","inputs":[],"outputs":[{"name":"","type":"uint256","internalType":"uint256"}],"stateMutability":"view"},{"type":"function","name":"protocolFeeBps","inputs":[],"outputs":[{"name":"","type":"uint256","internalType":"uint256"}],"stateMutability":"view"},{"type":"function","name":"proxiableUUID","inputs":[],"outputs":[{"name":"","type":"bytes32","internalType":"bytes32"}],"stateMutability":"view"},{"type":"function","name":"setDefaultPublicKey","inputs":[{"name":"newPublicKey","type":"bytes32","internalType":"bytes32"}],"outputs":[],"stateMutability":"nonpayable"},{"type":"function","name":"setFeeRecipient","inputs":[{"name":"newRecipient","type":"address","internalType":"address"}],"outputs":[],"stateMutability":"nonpayable"},{"type":"function","name":"setProtocolFee","inputs":[{"name":"newFeeBps","type":"uint256","internalType":"uint256"}],"outputs":[],"stateMutability":"nonpayable"},{"type":"function","name":"setStrategy","inputs":[{"name":"_strategy","type":"address","internalType":"address"}],"outputs":[],"stateMutability":"nonpayable"},{"type":"function","name":"strategy","inputs":[],"outputs":[{"name":"","type":"address","internalType":"contract IStrategy"}],"stateMutability":"view"},{"type":"function","name":"totalAssets","inputs":[],"outputs":[{"name":"","type":"uint256","internalType":"uint256"}],"stateMutability":"view"},{"type":"function","name":"upgradeToAndCall","inputs":[{"name":"newImplementation","type":"address","internalType":"address"},{"name":"data","type":"bytes","internalType":"bytes"}],"outputs":[],"stateMutability":"payable"},{"type":"function","name":"withdraw","inputs":[{"name":"assets","type":"uint256","internalType":"uint256"},{"name":"receiver","type":"address","internalType":"address"},{"name":"owner","type":"address","internalType":"address"}],"outputs":[{"name":"frUsdAmount","type":"uint256","internalType":"uint256"}],"stateMutability":"nonpayable"},{"type":"function","name":"withdrawAllFromStrategy","inputs":[],"outputs":[],"stateMutability":"nonpayable"},{"type":"function","name":"withdrawFees","inputs":[],"outputs":[],"stateMutability":"nonpayable"},{"type":"function","name":"withdrawFromBridge","inputs":[{"name":"amount","type":"uint256","internalType":"uint256"},{"name":"target","type":"address","internalType":"address"},{"name":"script","type":"bytes","internalType":"bytes"}],"outputs":[],"stateMutability":"nonpayable"},{"type":"function","name":"withdrawFromStrategy","inputs":[{"name":"amount","type":"uint256","internalType":"uint256"}],"outputs":[],"stateMutability":"nonpayable"},{"type":"event","name":"AssetsDeployedToStrategy","inputs":[{"name":"amount","type":"uint256","indexed":false,"internalType":"uint256"}],"anonymous":false},{"type":"event","name":"AssetsWithdrawnFromStrategy","inputs":[{"name":"amount","type":"uint256","indexed":false,"internalType":"uint256"}],"anonymous":false},{"type":"event","name":"AuthenticatedCall","inputs":[{"name":"caller","type":"address","indexed":true,"internalType":"address"},{"name":"selector","type":"bytes4","indexed":true,"internalType":"bytes4"},{"name":"nonce","type":"uint256","indexed":false,"internalType":"uint256"}],"anonymous":false},{"type":"event","name":"BridgeWithdrawal","inputs":[{"name":"target","type":"address","indexed":true,"internalType":"address"},{"name":"amount","type":"uint256","indexed":false,"internalType":"uint256"},{"name":"fallbackAddress","type":"address","indexed":false,"internalType":"address"},{"name":"targetCallSuccess","type":"bool","indexed":false,"internalType":"bool"}],"anonymous":false},{"type":"event","name":"DefaultPublicKeyUpdated","inputs":[{"name":"oldKey","type":"bytes32","indexed":true,"internalType":"bytes32"},{"name":"newKey","type":"bytes32","indexed":true,"internalType":"bytes32"}],"anonymous":false},{"type":"event","name":"Deposited","inputs":[{"name":"user","type":"address","indexed":true,"internalType":"address"},{"name":"assets","type":"uint256","indexed":false,"internalType":"uint256"},{"name":"frUsdMinted","type":"uint256","indexed":false,"internalType":"uint256"}],"anonymous":false},{"type":"event","name":"FeeRecipientUpdated","inputs":[{"name":"oldRecipient","type":"address","indexed":true,"internalType":"address"},{"name":"newRecipient","type":"address","indexed":true,"internalType":"address"}],"anonymous":false},{"type":"event","name":"FeesWithdrawn","inputs":[{"name":"recipient","type":"address","indexed":true,"internalType":"address"},{"name":"amount","type":"uint256","indexed":false,"internalType":"uint256"}],"anonymous":false},{"type":"event","name":"Initialized","inputs":[{"name":"version","type":"uint64","indexed":false,"internalType":"uint64"}],"anonymous":false},{"type":"event","name":"PaymentProcessed","inputs":[{"name":"paymentId","type":"uint256","indexed":true,"internalType":"uint256"},{"name":"processor","type":"address","indexed":true,"internalType":"address"}],"anonymous":false},{"type":"event","name":"PaymentQueued","inputs":[{"name":"paymentId","type":"uint256","indexed":true,"internalType":"uint256"},{"name":"depositor","type":"address","indexed":true,"internalType":"address"},{"name":"frUsd","type":"uint256","indexed":false,"internalType":"uint256"},{"name":"assets","type":"uint256","indexed":false,"internalType":"uint256"}],"anonymous":false},{"type":"event","name":"ProtocolFeeUpdated","inputs":[{"name":"oldFeeBps","type":"uint256","indexed":false,"internalType":"uint256"},{"name":"newFeeBps","type":"uint256","indexed":false,"internalType":"uint256"}],"anonymous":false},{"type":"event","name":"StrategyUpdated","inputs":[{"name":"oldStrategy","type":"address","indexed":true,"internalType":"address"},{"name":"newStrategy","type":"address","indexed":true,"internalType":"address"}],"anonymous":false},{"type":"event","name":"Upgraded","inputs":[{"name":"implementation","type":"address","indexed":true,"internalType":"address"}],"anonymous":false},{"type":"event","name":"Withdrawn","inputs":[{"name":"user","type":"address","indexed":true,"internalType":"address"},{"name":"assets","type":"uint256","indexed":false,"internalType":"uint256"},{"name":"frUsdBurned","type":"uint256","indexed":false,"internalType":"uint256"}],"anonymous":false},{"type":"error","name":"AddressEmptyCode","inputs":[{"name":"target","type":"address","internalType":"address"}]},{"type":"error","name":"CallFailed","inputs":[]},{"type":"error","name":"ERC1967InvalidImplementation","inputs":[{"name":"implementation","type":"address","internalType":"address"}]},{"type":"error","name":"ERC1967NonPayable","inputs":[]},{"type":"error","name":"EmptyProtostone","inputs":[]},{"type":"error","name":"FailedCall","inputs":[]},{"type":"error","name":"ForwardProtostoneReference","inputs":[]},{"type":"error","name":"InsufficientAssets","inputs":[]},{"type":"error","name":"InvalidCellpackFormat","inputs":[]},{"type":"error","name":"InvalidInitialization","inputs":[]},{"type":"error","name":"InvalidNonce","inputs":[]},{"type":"error","name":"InvalidOutputReference","inputs":[]},{"type":"error","name":"InvalidProtostoneFormat","inputs":[]},{"type":"error","name":"InvalidProtostones","inputs":[]},{"type":"error","name":"InvalidSignature","inputs":[]},{"type":"error","name":"NotInitializing","inputs":[]},{"type":"error","name":"NotSelf","inputs":[]},{"type":"error","name":"PaymentAlreadyProcessed","inputs":[]},{"type":"error","name":"PaymentNotFound","inputs":[]},{"type":"error","name":"ReentrancyGuardReentrantCall","inputs":[]},{"type":"error","name":"SafeERC20FailedOperation","inputs":[{"name":"token","type":"address","internalType":"address"}]},{"type":"error","name":"StrategyMismatch","inputs":[]},{"type":"error","name":"UUPSUnauthorizedCallContext","inputs":[]},{"type":"error","name":"UUPSUnsupportedProxiableUUID","inputs":[{"name":"slot","type":"bytes32","internalType":"bytes32"}]},{"type":"error","name":"ZeroAddress","inputs":[]},{"type":"error","name":"ZeroAmount","inputs":[]},{"type":"error","name":"ZeroPublicKey","inputs":[]}],"bytecode":{"object":"0x60a08060405234620000f55760017f9b779b17422d0df92223018b32b4d1fa46e071723d6817e2486d003becc55f0055306080527ff0c57e16840df040f15088dc2f81fe391c3923bec73e23a9662efc9c229c6a009081549060ff8260401c16620000e657506001600160401b036002600160401b031982821601620000a0575b604051613cfb9081620000fa8239608051818181610b5b0152610c870152f35b6001600160401b031990911681179091556040519081527fc7f505b2f371ae2175ee4913f4499e1f2633a7b5936321eed1cdaeb6115181d290602090a15f808062000080565b63f92ee8a960e01b8152600490fd5b5f80fdfe60806040526004361015610011575f80fd5b5f3560e01c806301e1d1141461028f5780630344bed31461028a578063042e43371461028557806306fdde031461022657806307a2d13a146102805780630b5090071461027b57806310ce6dd514610276578063115933cc14610271578063313ce5671461026c5780633280a8361461026757806333a100ca1461026257806335659fb81461025d57806338d52e0f146102585780634431c99c14610253578063469048401461024e578063476343ee1461024957806348b19335146102445780634f1ef2861461023f57806352d1902d1461023a57806363acc14d146102355780636e553f65146102305780636f321b6f1461022b57806374a0a5cc14610226578063778fe91114610221578063787dce3d1461021c5780637c5c2ff21461021757806387d81789146102125780639eb2034d1461020d578063a437267714610208578063a79b2c7d14610203578063a8c62e76146101fe578063ad3cb1cc146101f9578063ade10960146101f4578063b460af94146101ef578063b8e0ffbe146101ea578063d7ced39a146101e5578063db29028b146101e0578063e74b981b146101db578063f071db5a146101d65763f471dd8b146101d1575f80fd5b611d71565b611d54565b611ce2565b611c82565b611b8a565b611b6d565b61187c565b6117b9565b611774565b61174c565b611725565b611708565b6116eb565b611684565b611233565b61119a565b611041565b6104df565b610fca565b610e2c565b610cde565b610c75565b610b18565b61092f565b6108ad565b610885565b6107dc565b610735565b610718565b6106ac565b61062f565b6105d0565b610596565b610579565b610558565b610534565b610470565b6103cd565b6102a2565b5f91031261029e57565b5f80fd5b3461029e575f36600319011261029e576002546102cf906001600160a01b03165b6001600160a01b031690565b6040516370a0823160e01b8152306004820152906020908190839060249082905afa918215610399575f926103ae575b50600454610315906001600160a01b03166102c3565b6001600160a01b0381161561039e579181600493604051948580926278744560e21b82525afa80156103995761036893610358935f9261036c575b505090611dd5565b6040519081529081906020820190565b0390f35b61038b9250803d10610392575b6103838183610a7c565b810190611d99565b5f80610350565b503d610379565b611da8565b5050610358610368915f90611dd5565b816103c69293503d8411610392576103838183610a7c565b905f6102ff565b3461029e57602036600319011261029e5760043530330361045e5760065481101561044c5760066103fd82611531565b5001805460ff811661043a5760ff1916600117905533907f92402fc6c242ee2878ad7dbc3eb6fde433da1023cb2509afe384b74493d644d05f80a3005b60405163424e8d7160e01b8152600490fd5b60405163befcc57b60e01b8152600490fd5b6040516314e1dbf760e11b8152600490fd5b3461029e575f36600319011261029e576020600554604051908152f35b91908251928382525f5b8481106104b7575050825f602080949584010152601f8019910116010190565b602081830181015184830182015201610497565b9060206104dc92818152019061048d565b90565b3461029e575f36600319011261029e576103686040516104fe81610a49565b60158152741554d110c814dd18589b1958dbda5b8815985d5b1d605a1b602082015260405191829160208352602083019061048d565b3461029e57602036600319011261029e57602060405164e8d4a51000600435048152f35b3461029e575f36600319011261029e5730330361045e57610577611de2565b005b3461029e575f36600319011261029e576020600154604051908152f35b3461029e57602036600319011261029e5764e8d4a510006004358181029181159183041417156105cb57602090604051908152f35b611db3565b3461029e575f36600319011261029e57602060405160068152f35b959261061d9260c0969998959260018060a01b031688526020880152604087015260e0606087015260e086019061048d565b95608085015260a08401521515910152565b3461029e57602036600319011261029e5760043560065481101561044c5761065690611531565b5060018060a01b038154166103686001830154926002810154600482015460058301549161068e600360ff60068701541695016115a7565b90604051978897886105eb565b6001600160a01b0381160361029e57565b3461029e57602036600319011261029e576004356106c98161069b565b30330361045e57600480546001600160a01b039283166001600160a01b0319821681179092559091167fe4cec16b1a7e6b7979e923da619a8b1e5fd0f0fb6e5c1cf647f350430ee61ca95f80a3005b3461029e575f36600319011261029e576020600954604051908152f35b3461029e575f36600319011261029e576002546040516001600160a01b039091168152602090f35b6020808201908083528351809252604092604081018260408560051b8401019601945f925b858410610793575050505050505090565b9091929394959685806107cb600193603f1986820301885286838d516001600160401b0381511684520151918185820152019061048d565b990194019401929594939190610782565b3461029e5760208060031936011261029e5760043560065481101561044c57610806600491611531565b5001805461081381611f45565b916040936108246040519485610a7c565b82845260208401915f5260205f205f925b84841061084a5760405180610368888261075d565b600283600192895161085b81610a49565b6001600160401b0386541681526108738587016115a7565b83820152815201920193019290610835565b3461029e575f36600319011261029e57600b546040516001600160a01b039091168152602090f35b3461029e575f36600319011261029e5730330361045e57600a54801561091d575f600a557fc0819c13be868895eb93e40eaceb96de976442fa1d404e5c55f14bb65a8c489a602060018060a01b0361090f84826002541683600b541690612672565b600b541692604051908152a2005b604051631f2a200560e01b8152600490fd5b3461029e57602036600319011261029e5760048035303303610a2557815461095f906001600160a01b03166102c3565b6001600160a01b03811615610a14578115610a0357604051632e1a7d4d60e01b8152928301828152602091849182905f908290860103925af1908115610399577f16f2feda7d45b303d1aaaf34797de563eb812db24f33649371e7dda69c77aa25926109df926109e4575b506103586109da82600854611f6a565b600855565b0390a1005b6109fc9060203d602011610392576103838183610a7c565b505f6109ca565b604051631f2a200560e01b81528390fd5b60405163d92e233d60e01b81528390fd5b506040516314e1dbf760e11b8152fd5b634e487b7160e01b5f52604160045260245ffd5b604081019081106001600160401b03821117610a6457604052565b610a35565b6001600160401b038111610a6457604052565b90601f801991011681019081106001600160401b03821117610a6457604052565b60405190610aaa82610a49565b565b6001600160401b038111610a6457601f01601f191660200190565b929192610ad382610aac565b91610ae16040519384610a7c565b82948184528183011161029e578281602093845f960137010152565b9080601f8301121561029e578160206104dc93359101610ac7565b60408060031936011261029e576004803591610b338361069b565b6024356001600160401b03811161029e57610b519036908401610afd565b6001600160a01b037f00000000000000000000000000000000000000000000000000000000000000008116308114908115610c5a575b50610c4b57303303610c3c5790602084928451938480926352d1902d60e01b825289165afa5f9281610c1b575b50610be057505051634c9c8ce360e01b81526001600160a01b0390921690820190815281906020010390fd5b8484845f80516020613c868339815191528503610c01576105778484612ec1565b51632a87526960e21b815290810184815281906020010390fd5b610c3591935060203d602011610392576103838183610a7c565b915f610bb4565b5050516314e1dbf760e11b8152fd5b50505163703e46dd60e11b8152fd5b9050815f80516020613c86833981519152541614155f610b87565b3461029e575f36600319011261029e577f00000000000000000000000000000000000000000000000000000000000000006001600160a01b03163003610ccc5760206040515f80516020613c868339815191528152f35b60405163703e46dd60e11b8152600490fd5b3461029e57608036600319011261029e57600435610cfb8161069b565b602435610d078161069b565b60443591610d148361069b565b5f80516020613ca683398151915254926001600160401b0360ff8560401c1615941680159081610e24575b6001149081610e1a575b159081610e11575b50610dff575f80516020613ca6833981519152805467ffffffffffffffff19166001179055610d899284610ddb575b60643592611f77565b610d8f57005b5f80516020613ca6833981519152805460ff60401b19169055604051600181527fc7f505b2f371ae2175ee4913f4499e1f2633a7b5936321eed1cdaeb6115181d29080602081016109df565b5f80516020613ca6833981519152805460ff60401b1916600160401b179055610d80565b60405163f92ee8a960e01b8152600490fd5b9050155f610d51565b303b159150610d49565b859150610d3f565b3461029e5760408060031936011261029e576004359060243590610e4f8261069b565b610e576126f8565b8215610f8d576001600160a01b0382168015610f7c57610e7684611f18565b600254909390610e959086906001600160a01b03165b3090339061273a565b600354610eaa906001600160a01b03166102c3565b803b1561029e5783516340c10f1960e01b81526001600160a01b03929092166004830152602482018590525f908290604490829084905af1801561039957610368957f73a19dd210f1a7f902193214c0ee91dd35ee5b4d920cba8d519eca65a7b488ca928692610f63575b508451908152602081019190915280604081015b0390a2610f5560017f9b779b17422d0df92223018b32b4d1fa46e071723d6817e2486d003becc55f0055565b519081529081906020820190565b80610f70610f7692610a69565b80610294565b5f610f15565b815163d92e233d60e01b8152600490fd5b51631f2a200560e01b8152600490fd5b9181601f8401121561029e578235916001600160401b03831161029e576020838186019501011161029e57565b3461029e57606036600319011261029e576001600160401b0360243581811161029e57610ffb903690600401610f9d565b916044359181831161029e573660238401121561029e57826004013591821161029e573660248360051b8501011161029e57610368936024610358940191600435612025565b3461029e57606036600319011261029e576001600160401b0360043581811161029e57611072903690600401610f9d565b916024359060443590811161029e5761108f903690600401610f9d565b906005548303611188576110d7916110d39160405160208101906110cb816110bd8b8b8b30924692896124e0565b03601f198101835282610a7c565b519020612b9d565b1590565b611176576110ec6110e782611dc7565b600555565b5f80604051806110fd818888612523565b039082305af19161110c612530565b921561116e57611122610368946111329261255f565b6001600160e01b03199291612585565b604051928352169033907ff070f479790152057f9b8cd3f7a9e3e20833b34ea3f754bb31e6fcbd7f3c529490602090a3604051918291826104cb565b825160208401fd5b604051638baa579f60e01b8152600490fd5b604051633ab3447f60e11b8152600490fd5b3461029e57602036600319011261029e5760043530330361045e57606481116111ff5760098054908290556040805191825260208201929092527fb404cac19fb1cbeff98d325795b08886e3cd8fe8cb1a2f193aac66f13fb239c391819081016109df565b60405162461bcd60e51b815260206004820152600c60248201526b08ccaca40e8dede40d0d2ced60a31b6044820152606490fd5b3461029e57606036600319011261029e576004803590602435906112568261069b565b6044356001600160401b03811161029e576112749036908301610f9d565b92909130330361150e5784156114ff576001600160a01b038281169590919086156114ef576112b06112a860095483611f32565b612710900490565b926112cf6112ca6112c18685611f6a565b95600a54611dd5565b600a55565b6002546112e4906001600160a01b03166102c3565b6040516370a0823160e01b80825230868301908152919360209391929091849186919082908190850103915afa938415610399575f946114d0575b50838581106113b9575b50505050505050831515806113af575b15611348576105779450612c8c565b6002547fbcd0717223e291a64dd6798283b91e4eb62b5595691d85617563c9dbdd754ddc94509192509061138890829084906001600160a01b0316612672565b604080519182526001600160a01b03929092166020820152600191810191909152606090a2005b50813b1515611339565b86546113cd906001600160a01b03166102c3565b9182166113f8575b50505050106113e957808080808080611329565b6040516396d8043360e01b8152fd5b611406919293945085611f6a565b836040518093632e1a7d4d60e01b8252815f8161142a878d83019190602083019252565b03925af19081156103995761144b926109da926114b3575b50600854611f6a565b6002548290611462906001600160a01b03166102c3565b604051928352308684019081528391908290819060200103915afa918215610399575f92611496575b50505f8080806113d5565b6114ac9250803d10610392576103838183610a7c565b5f8061148b565b6114c990863d8811610392576103838183610a7c565b505f611442565b6114e8919450833d8511610392576103838183610a7c565b925f61131f565b5060405163d92e233d60e01b8152fd5b604051631f2a200560e01b8152fd5b6040516314e1dbf760e11b8152fd5b634e487b7160e01b5f52603260045260245ffd5b60065481101561156a5760079060065f52027ff652222313e28459528d920b65115c16c04f3efc82aaedc97be59f3f377c0d3f01905f90565b61151d565b90600182811c9216801561159d575b602083101461158957565b634e487b7160e01b5f52602260045260245ffd5b91607f169161157e565b9060405191825f82546115b98161156f565b908184526020946001916001811690815f1461162557506001146115e7575b505050610aaa92500383610a7c565b5f90815285812095935091905b81831061160d575050610aaa93508201015f80806115d8565b855488840185015294850194879450918301916115f4565b92505050610aaa94925060ff191682840152151560051b8201015f80806115d8565b949695926116779260a09592600180881b031687526020870152604086015260c0606086015260c085019061048d565b9460808401521515910152565b3461029e57602036600319011261029e5760043560065481101561029e576116ab90611531565b5060018060a01b038154166103686001830154926002810154906116d1600382016115a7565b60ff60066005840154930154169260405196879687611647565b3461029e575f36600319011261029e576020600754604051908152f35b3461029e575f36600319011261029e576020600854604051908152f35b3461029e575f36600319011261029e575f546040516001600160a01b039091168152602090f35b3461029e575f36600319011261029e576004546040516001600160a01b039091168152602090f35b3461029e575f36600319011261029e5761036860405161179381610a49565b60058152640352e302e360dc1b602082015260405191829160208352602083019061048d565b3461029e575f36600319011261029e5730330361045e576004546117e5906001600160a01b03166102c3565b6001600160a01b0381161561186a5760205f9160046040518094819363429c145b60e11b83525af1908115610399577f16f2feda7d45b303d1aaaf34797de563eb812db24f33649371e7dda69c77aa25916109df915f9161184b575b506103585f600855565b611864915060203d602011610392576103838183610a7c565b5f611841565b60405163d92e233d60e01b8152600490fd5b3461029e57606036600319011261029e576004602435813561189d8261069b565b604435916118aa8361069b565b6118b26126f8565b8115611b5c576001600160a01b0391818316918215611b4b5783851615611b4b576118dc82611f18565b6002549095906118f4906001600160a01b03166102c3565b604080516370a0823160e01b808252308b8301908152929891939192602092839186919082908190850103915afa9283156103995787945f94611b2c575b50838c868210611a0f575b505060035461195b95506001600160a01b031693506102c392505050565b96873b1561029e578551632770a7eb60e21b81526001600160a01b039092169082019081526020810187905290965f9188919082908490829060400103925af1918215610399576119e5818793610368997f92ccf450a286a957af52509bc1c9939d1a6a481783e142e41e2499f0bb66ebc6966119fc575b506002546001600160a01b0316612672565b845190815260208101919091528060408101610f29565b80610f70611a0992610a69565b5f6119d3565b54611a22906001600160a01b03166102c3565b918216611a4f575b5050505010611a3f57825f808080808c61193d565b84516396d8043360e01b81528790fd5b611a859450611a6390849694929394611f6a565b80928d5f8d51809881958294632e1a7d4d60e01b845283019190602083019252565b03925af191821561039957611aab6109da8d93611ada968896611b165750600854611f6a565b600254611ac0906001600160a01b03166102c3565b8a5191825230928201928352909384928391829160200190565b03915afa9081156103995785925f92611af9575b50505f808080611a2a565b611b0f9250803d10610392576103838183610a7c565b5f80611aee565b6114c990873d8911610392576103838183610a7c565b611b44919450833d8511610392576103838183610a7c565b925f611932565b60405163d92e233d60e01b81528690fd5b604051631f2a200560e01b81528490fd5b3461029e575f36600319011261029e576020600654604051908152f35b3461029e57602036600319011261029e5760043530330361045e5760065481101561044c57611bb881611531565b506006810190611bc9825460ff1690565b61043a576001611be391015491600160ff19825416179055565b611bf7611bf282600754611f6a565b600755565b600354611c0c906001600160a01b03166102c3565b803b1561029e57604051632770a7eb60e21b815230600482015260248101929092525f908290604490829084905af1801561039957611c6f575b5033907f92402fc6c242ee2878ad7dbc3eb6fde433da1023cb2509afe384b74493d644d05f80a3005b80610f70611c7c92610a69565b5f611c46565b3461029e57602036600319011261029e5760043530330361045e578015611cd057600154816001557f90eb652ab06ce267e9bbccdf2ebfb91bdf8c9930a7df584e86b6c7f4675d80ae5f80a3005b6040516358f6ee4160e11b8152600490fd5b3461029e57602036600319011261029e57600435611cff8161069b565b30330361045e576001600160a01b0390811690811561186a57600b54826001600160601b0360a01b821617600b55167faaebcf1bfa00580e41d966056b48521fa9f202645c86d4ddf28113e617c1b1d35f80a3005b3461029e575f36600319011261029e576020600a54604051908152f35b3461029e575f36600319011261029e576003546040516001600160a01b039091168152602090f35b9081602091031261029e575190565b6040513d5f823e3d90fd5b634e487b7160e01b5f52601160045260245ffd5b90600182018092116105cb57565b919082018092116105cb57565b600454611df7906001600160a01b03166102c3565b6001600160a01b03908082161561186a576002546001600160a01b03166040516370a0823160e01b8152306004820152926020908490818060248101039185165afa928315610399575f93611ef7575b508215611ef257611e599183916125b1565b600454611e6e906001600160a01b03166102c3565b90813b1561029e5760405163b6b55f2560e01b815260048101829052915f908390602490829084905af1908115610399577fdbd24739d09a3765ae9558b2d14a8cb0b9673620ac185f4cba59a67585a5f36192611eda92611edf575b506103586109da82600854611dd5565b0390a1565b80610f70611eec92610a69565b5f611eca565b505050565b611f1191935060203d602011610392576103838183610a7c565b915f611e47565b9064e8d4a51000918281029281840414901517156105cb57565b818102929181159184041417156105cb57565b6001600160401b038111610a645760051b60200190565b5f198101919082116105cb57565b919082039182116105cb57565b92916001600160a01b03908185161561186a578183161561186a5716801561186a578215611cd057611fe761200292611fca6120079660018060a01b03166001600160601b0360a01b6002541617600255565b60018060a01b03166001600160601b0360a01b6003541617600355565b60018060a01b03166001600160601b0360a01b5f5416175f55565b600155565b612011600a600955565b600b80546001600160a01b03191630179055565b929190916120316126f8565b831561091d578115612203576120686110d361205861204f88611dc7565b63ffffffff1690565b6120638186886128c2565b612a44565b612203576002546120839085906001600160a01b0316610e8c565b6120a26112ca6112c161209b6112a860095489611f32565b8097611f6a565b6120ab84611f18565b6003549095906120c3906001600160a01b03166102c3565b803b1561029e576040516340c10f1960e01b815230600482015260248101889052905f908290604490829084905af18015610399576121f0575b5061213661210c939293612215565b5080546001600160a01b0319163317815592600195886001860155876002860155600385016122b1565b42600583015560068201805460ff1916905560045f9201915b8181106121d457505050505061216a611bf283600754611dd5565b612175600654611f5c565b60408051848152602081019390935233927fc2b1e465490487a0fe62d2a954d53818ffbe82e949b943f1820deac275d335579190a390610aaa60017f9b779b17422d0df92223018b32b4d1fa46e071723d6817e2486d003becc55f0055565b806121ea6121e487938588612379565b8561239b565b0161214f565b80610f706121fd92610a69565b5f6120fd565b604051632a52279f60e11b8152600490fd5b600654600160401b811015610a6457600181018060065581101561156a5760079060065f52027ff652222313e28459528d920b65115c16c04f3efc82aaedc97be59f3f377c0d3f01905f90565b601f821161226f57505050565b5f5260205f20906020601f840160051c830193106122a7575b601f0160051c01905b81811061229c575050565b5f8155600101612291565b9091508190612288565b9092916001600160401b038111610a64576122d6816122d0845461156f565b84612262565b5f601f82116001146123145781906123059394955f92612309575b50508160011b915f199060031b1c19161790565b9055565b013590505f806122f1565b601f19821694612327845f5260205f2090565b915f5b878110612361575083600195969710612348575b505050811b019055565b01355f19600384901b60f8161c191690555f808061233e565b9092602060018192868601358155019401910161232a565b919081101561156a5760051b81013590603e198136030182121561029e570190565b805490600160401b821015610a645760019081830180825583101561156a575f52602091825f2090821b019083356001600160401b0392838216820361029e576123fc839282906001600160401b03166001600160401b0319825416179055565b01938381013590601e198136030182121561029e5701803592831161029e578236038482011361029e5761243a83612434875461156f565b87612262565b5f91601f84116001146124785750928291612305945f9361246b575b5050508160011b915f199060031b1c19161790565b01013590505f8080612456565b93601f198416928461248d885f5260205f2090565b945f5b888282106124c6575050106124ab575b50505050811b019055565b5f1960f88660031b161c19920101351690555f8080806124a0565b868501860135885590960195928401928792508401612490565b93908260609497969360a09260808852816080890152838801375f828288010152601f8019910116850101956020850152604084015260018060a01b0316910152565b908092918237015f815290565b3d1561255a573d9061254182610aac565b9161254f6040519384610a7c565b82523d5f602084013e565b606090565b9060041161029e5790600490565b9093929384831161029e57841161029e578101920390565b6001600160e01b031990358181169392600481106125a257505050565b60040360031b82901b16169150565b60405163095ea7b360e01b5f9081526001600160a01b038085166004526024869052949293919060209060448180885af19060015f5114821615612663575b604052156125ff575b50505050565b6126098184612e2a565b156126495761261c916110d39184612e86565b6126275780806125f9565b604051635274afe760e01b815291166001600160a01b03166004820152602490fd5b604051635274afe760e01b81528484166004820152602490fd5b90843b15153d151616906125f0565b60405163a9059cbb60e01b5f9081526001600160a01b039384166004526024949094529260209060448180855af160015f51148116156126d9575b83604052156126bb57505050565b635274afe760e01b8352166001600160a01b03166004820152602490fd5b60018115166126ef57813b15153d1516166126ad565b833d5f823e3d90fd5b7f9b779b17422d0df92223018b32b4d1fa46e071723d6817e2486d003becc55f0060028154146127285760029055565b604051633ee5aeb560e01b8152600490fd5b6040516323b872dd60e01b5f9081526001600160a01b03938416600452938316602452604494909452909160209060648180855af160015f511481161561278e575b836040525f606052156126bb57505050565b60018115166126ef57813b15153d15161661277c565b604051906127b182610a49565b5f6020838281520152565b6040519060c082018281106001600160401b03821117610a64576040525f60a08360608152606060208201526127f06127a4565b60408201526127fd6127a4565b60608201528260808201520152565b9061281682611f45565b6128236040519182610a7c565b8281528092612834601f1991611f45565b01905f5b82811061284457505050565b60209061284f6127bc565b82828501015201612838565b5f1981146105cb5760010190565b9082101561156a570190565b80511561156a5760200190565b80516001101561156a5760400190565b80516002101561156a5760600190565b805182101561156a5760209160051b010190565b80156105cb575f190190565b908015612a32576128db6128d68284612f66565b61280c565b925f915f915f945f5b838111156128f6575050505050505090565b83811061295c575b8084612915921480612953575b61291a575b61285b565b6128e4565b6129388461292a838a898861256d565b63ffffffff8a1692916130ec565b612942878b6128a2565b5261294d868a6128a2565b5061285b565b5080871061290b565b956001600160f81b0319612982612974898786612869565b356001600160f81b03191690565b16605b60f81b81036129a4575061299b6129159161285b565b965b90506128fe565b605d60f81b81036129c257506129bc612915916128b6565b9661299d565b909690600b60fa1b1480612a2a575b6129de576129159061299d565b9493612a02836129f488859888612a179761256d565b63ffffffff851692916130ec565b612a0c828a6128a2565b5261294d81896128a2565b92612915612a2486611dc7565b9561285b565b5086156129d1565b604051636c0454b960e11b8152600490fd5b905f5b8251811015612b7d57612a5a81846128a2565b516040810151612a6d6110d38251151590565b9081612b65575b50612b5d57606080820151612a8c6110d38251151590565b9081612b45575b50612b3c576020918201945f5b86518051821015612b2e57612ab68285926128a2565b5101518051151590811580612b18575b612b0b5785879183612aed575b505050612ae257600101612aa0565b505050505050505f90565b0151909150612b019063ffffffff1661204f565b101585855f612ad3565b5050505050505050505f90565b508581015163ffffffff89811691161015612ac6565b505094505050600101612a47565b50505050505f90565b6020015163ffffffff8681169116101590505f612a93565b505050505f90565b6020015163ffffffff8581169116101590505f612a74565b505050600190565b9081602091031261029e5751801515810361029e5790565b9160408103612c4f578060201161029e5760401161029e575f54612c11926020929091612bd2906001600160a01b03166102c3565b600154604051630fde6e5560e01b8152600481019190915282356024820152918401356044830152606482019290925292839190829081906084820190565b03915afa908115610399575f91612c26575090565b6104dc915060203d602011612c48575b612c408183610a7c565b810190612b85565b503d612c36565b5050505f90565b91909160408184031261029e578035612c6e8161069b565b9260208201356001600160401b03811161029e576104dc9201610afd565b9291612c9b9192810190612c56565b6001600160a01b0391821692908315612e21575b6002546001600160a01b03166040516370a0823160e01b80825230600483015291959192602092918381806024810103818a8c165afa9788156103995789915f99612df4575b5091612d055f93928885946125b1565b848151910182885af191612d17612530565b506002546001600160a01b0316604051948552306004860152908085806024810103818a86165afa8015610399577fbcd0717223e291a64dd6798283b91e4eb62b5595691d85617563c9dbdd754ddc98612db596612d7d935f93612dd5575b5050611f6a565b9082898310612dba575b5050604080519889526001600160a01b03909216602089015250901515908601529116929081906060820190565b0390a2565b612dc7612dcd938b611f6a565b91612672565b5f8082612d87565b612dec929350803d10610392576103838183610a7c565b905f80612d76565b5f93919950839288612e15612d0593893d8b11610392576103838183610a7c565b9b939550509250612cf5565b92508092612caf565b60405163095ea7b360e01b5f9081526001600160a01b03909316600452602483905290929160209060448180875af19260015f5114841615612e6d575b50604052565b600184929415166126ef573b15153d151616915f612e67565b92916040519163095ea7b360e01b5f5260018060a01b031660045260245260205f60448180875af19260015f5114841615612e6d5750604052565b90813b15612f45575f80516020613c8683398151915280546001600160a01b0319166001600160a01b0384169081179091557fbc7cd75a20ee27fd9adebab32041f755214dbc6bffa90cc0225b39da2e5c2d3b5f80a2805115612f2a57612f27916132fc565b50565b505034612f3357565b60405163b398979f60e01b8152600490fd5b604051634c9c8ce360e01b81526001600160a01b0383166004820152602490fd5b6001929183915f90815b838310612f7e575050505050565b84906001600160f81b0319612f94858786612869565b3516605b60f81b8103612fb45750612fab9061285b565b925b0191612f70565b605d60f81b8103612fcf5750612fc9906128b6565b92612fad565b90939150600b60fa1b1480612ffe575b612feb575b8490612fad565b95612ff6859161285b565b969050612fe4565b508215612fdf565b60405190608082018281106001600160401b03821117610a6457604052815f81525f60208201525f6040820152606061303d6127a4565b910152565b9061304c82611f45565b6130596040519182610a7c565b828152809261306a601f1991611f45565b01905f5b82811061307a57505050565b602090613085613006565b8282850101520161306e565b60409060405191606083018381106001600160401b03821117610a645760405260028352825f5b8281106130c457505050565b6020906130cf6127a4565b828285010152016130b8565b90815181101561156a570160200190565b9391936130f76127bc565b918015612a3257613107916133be565b936060936131158651613042565b915f93613120613091565b955f915f965b8a5188101561321d57613139888c6128a2565b5180511561321357605b60f81b61317061316361315584612875565b516001600160f81b03191690565b6001600160f81b03191690565b036131c75761317e8161369e565b156131b25760019161319488886131a9946138f5565b61319e828b6128a2565b5261294d818a6128a2565b975b0196613126565b600191989a506131c19061371b565b996131ab565b8587916002879b949b106131e1575b5050506001906131ab565b6132089260019497926131f39261356e565b6131fd828d6128a2565b5261294d818c6128a2565b93905085855f6131d6565b50966001906131ab565b95945097925097509350855261323282613042565b90602086019182525f5b8381106132d057505060018310915061329190505760029061325d83612875565b51604085015260016080850152106132885761327890612882565b516060820152600160a082015290565b61327890612875565b505061329b610a9d565b5f81525f602082015260408201526132b1610a9d565b5f8082526020820152606082015260016080820152600160a082015290565b806132f5816132e1600194866128a2565b518651906132ef83836128a2565b526128a2565b500161323c565b905f8091602081519101845af48080613362575b1561331f5750506104dc613b1e565b1561334757604051639996b31560e01b81526001600160a01b03919091166004820152602490fd5b3d15155f03611da85760405163d6bda27560e01b8152600490fd5b503d1515806133105750813b1515613310565b9061337f82611f45565b61338c6040519182610a7c565b828152809261339d601f1991611f45565b01905f5b8281106133ad57505050565b8060606020809385010152016133a1565b6001805f805b8582106134eb575050506133d790613375565b915f905f905f935f5b828111156133f15750505050505090565b828110613439575b8083613409921461340e5761285b565b6133e0565b61342461341d8288878761256d565b3691610ac7565b61342e868a6128a2565b5261294d85896128a2565b9461344b613163612974888686612869565b605b60f81b810361346c57506134636134099161285b565b955b90506133f9565b605d60f81b810361348a5750613484613409916128b6565b95613465565b909590601d60f91b14806134e3575b6134a65761340990613465565b93926134bb61341d868496866134d09661256d565b6134c582896128a2565b5261294d81886128a2565b916134096134dd85611dc7565b9461285b565b508515613499565b82906134fe613163612974858a8a612869565b605b60f81b810361351c57506135139061285b565b915b01906133c4565b605d60f81b81036135375750613531906128b6565b91613515565b90929150601d60f91b1480613566575b613553575b8290613515565b9261355e839161285b565b93905061354c565b508115613547565b906135776127a4565b926002835110613612576001600160f81b0319603b60f91b8161359c61315587612875565b16148015613684575b1561363957506135bc61204f5f945b805190613b65565b9183159081613624575b50613612578290816135fd575b506135eb57901515825263ffffffff16602082015290565b60405163767b4e9360e01b8152600490fd5b905063ffffffff80911690821610155f6135d3565b6040516321a8cdc960e11b8152600490fd5b905063ffffffff80911690831610155f6135c6565b600760fc1b8161364b61315587612875565b1614908115613669575b5015613612576135bc61204f6001946135b4565b600560fc1b915061367c61315586612875565b16145f613655565b50602b60f91b8161369761315587612875565b16146135a5565b60015b81515f1981019081116105cb578110156136e357601d60f91b6001600160f81b03196136cd83856130db565b5116146136dc576001016136a1565b5050600190565b50505f90565b906136f382611f45565b6137006040519182610a7c565b8281528092613711601f1991611f45565b0190602036910137565b6002815110801561387f575b8015613856575b613844576001805b6137408351611f5c565b81101561377e57600b60fa1b61375c61316361315584876130db565b1461376a575b600101613736565b9061377660019161285b565b919050613762565b50613788906136e9565b906001905f9060015b61379b8251611f5c565b811161383d576137ab8251611f5c565b81148015613821575b6137c7575b6137c29061285b565b613791565b92916129106137ed83946137de6138059551611f5c565b870361381a5786905b86613bfa565b6137f783886128a2565b906001600160801b03169052565b906137c261381284611dc7565b9390506137b9565b86906137e7565b50600b60fa1b61383761316361315584866130db565b146137b4565b5050505090565b6040516327ab808560e01b8152600490fd5b50605d60f81b60ff60f81b6138776131556138718551611f5c565b856130db565b16141561372e565b50605b60f81b6001600160f81b031961389a61315584612875565b161415613727565b6040519060a082018281106001600160401b03821117610a6457604052600482526080366020840137565b906138d782610aac565b6138e46040519182610a7c565b8281528092613711601f1991610aac565b92916138ff613006565b9160028551108015613afb575b8015613ad2575b613a4c5761391f6138a2565b9460015f8180805b613a5e575b5050600303613a4c5761395861394b61394489612875565b5184613b65565b6001600160801b03168652565b61399161398161397061396a8a612875565b51611dc7565b6139798a612882565b519085613bfa565b6001600160801b03166020870152565b6139bc6139ac6139a361396a8a612882565b6139798a612892565b6001600160801b03166040870152565b6139e96139e46139df6139cf8551611f5c565b6139d88b612892565b5190611f6a565b611f5c565b6138cd565b915f825b613a09575b505050613a019394955061356e565b606082015290565b8351811015613a4757908282613a326131556138718496613a2d8f61396a90612892565b611dd5565b5f1a613a3e82886130db565b530190916139ed565b6139f2565b60405163327ec2db60e21b8152600490fd5b613a688551611f5c565b811080613ac8575b15613ac35789601d60f91b613a8b613163613155858a6130db565b14613aa1575b50613a9b9061285b565b81613927565b8382613ab4613a9b9496613aba946128a2565b5261285b565b92905089613a91565b61392c565b5060048310613a70565b50605d60f81b60ff60f81b613af3613155613aed8951611f5c565b896130db565b161415613913565b50605b60f81b6001600160f81b0319613b1661315588612875565b16141561390c565b604051903d82523d5f602084013e60203d830101604052565b60ff602f199116019060ff82116105cb57565b9190916001600160801b03808094169116019182116105cb57565b5f9160019160015b828110613b7b575050505090565b613b8581836130db565b51600360fc1b6001600160f81b03198216908110159081613beb575b50613baf575b508301613b6d565b600a6001600160801b03969296809316029182169182036105cb57849160ff613bdd613be49360f81c613b37565b1690613b4a565b9490613ba7565b603960f81b101590505f613ba1565b5f92915b828110613c0b5750505090565b613c1581836130db565b51600360fc1b6001600160f81b03198216908110159081613c76575b50613c40575b50600101613bfe565b600a6001600160801b03959295809316029182169182036105cb5760019160ff613bdd613c6f9360f81c613b37565b9390613c37565b603960f81b101590505f613c3156fe360894a13ba1a3210667c828492db98dca3e2076cc3735a920a3ca505d382bbcf0c57e16840df040f15088dc2f81fe391c3923bec73e23a9662efc9c229c6a00a2646970667358221220b99573d30713dd93ba2406b5c53438bb8c0c5e899664d2206b7274047f3c06e564736f6c63430008180033","linkReferences":{}},"methodIdentifiers":{"UPGRADE_INTERFACE_VERSION()":"ad3cb1cc","VAULT_NAME()":"74a0a5cc","asset()":"38d52e0f","assetsInStrategy()":"a4372677","authNonce()":"042e4337","authenticatedCall(bytes,uint256,bytes)":"778fe911","bip340Verifier()":"a79b2c7d","burnFrUSD(uint256)":"d7ced39a","convertToAssets(uint256)":"07a2d13a","convertToFrUSD(uint256)":"115933cc","decimals()":"313ce567","defaultPublicKey()":"10ce6dd5","deposit(uint256,address)":"6e553f65","depositAndBridge(uint256,bytes,(uint64,bytes)[])":"6f321b6f","depositToStrategy()":"0b509007","feeRecipient()":"46904840","feesCollected()":"f071db5a","frUSD()":"f471dd8b","getPayment(uint256)":"3280a836","getPaymentOutputs(uint256)":"4431c99c","getPaymentsLength()":"b8e0ffbe","initialize(address,address,address,bytes32)":"63acc14d","markPaymentProcessed(uint256)":"0344bed3","name()":"06fdde03","payments(uint256)":"87d81789","pendingFrUSD()":"9eb2034d","protocolFeeBps()":"35659fb8","proxiableUUID()":"52d1902d","setDefaultPublicKey(bytes32)":"db29028b","setFeeRecipient(address)":"e74b981b","setProtocolFee(uint256)":"787dce3d","setStrategy(address)":"33a100ca","strategy()":"a8c62e76","totalAssets()":"01e1d114","upgradeToAndCall(address,bytes)":"4f1ef286","withdraw(uint256,address,address)":"b460af94","withdrawAllFromStrategy()":"ade10960","withdrawFees()":"476343ee","withdrawFromBridge(uint256,address,bytes)":"7c5c2ff2","withdrawFromStrategy(uint256)":"48b19335"},"id":62}